{
  "contractName": "ERC20Token",
  "abi": [
    {
      "inputs": [
        {
          "internalType": "string",
          "name": "_name",
          "type": "string"
        },
        {
          "internalType": "string",
          "name": "_symbol",
          "type": "string"
        },
        {
          "internalType": "address",
          "name": "initialAccount",
          "type": "address"
        },
        {
          "internalType": "uint256",
          "name": "initialBalance",
          "type": "uint256"
        }
      ],
      "stateMutability": "payable",
      "type": "constructor"
    },
    {
      "anonymous": false,
      "inputs": [
        {
          "indexed": true,
          "internalType": "address",
          "name": "owner",
          "type": "address"
        },
        {
          "indexed": true,
          "internalType": "address",
          "name": "spender",
          "type": "address"
        },
        {
          "indexed": false,
          "internalType": "uint256",
          "name": "value",
          "type": "uint256"
        }
      ],
      "name": "Approval",
      "type": "event"
    },
    {
      "anonymous": false,
      "inputs": [
        {
          "indexed": false,
          "internalType": "address",
          "name": "from",
          "type": "address"
        },
        {
          "indexed": false,
          "internalType": "uint256",
          "name": "value",
          "type": "uint256"
        }
      ],
      "name": "Burn",
      "type": "event"
    },
    {
      "anonymous": false,
      "inputs": [
        {
          "indexed": false,
          "internalType": "address",
          "name": "account",
          "type": "address"
        }
      ],
      "name": "PausedEvt",
      "type": "event"
    },
    {
      "anonymous": false,
      "inputs": [
        {
          "indexed": true,
          "internalType": "address",
          "name": "from",
          "type": "address"
        },
        {
          "indexed": true,
          "internalType": "address",
          "name": "to",
          "type": "address"
        },
        {
          "indexed": false,
          "internalType": "uint256",
          "name": "value",
          "type": "uint256"
        }
      ],
      "name": "Transfer",
      "type": "event"
    },
    {
      "anonymous": false,
      "inputs": [
        {
          "indexed": false,
          "internalType": "address",
          "name": "account",
          "type": "address"
        }
      ],
      "name": "UnpausedEvt",
      "type": "event"
    },
    {
      "inputs": [],
      "name": "NON_WHITELIST_CODE",
      "outputs": [
        {
          "internalType": "uint8",
          "name": "",
          "type": "uint8"
        }
      ],
      "stateMutability": "view",
      "type": "function"
    },
    {
      "inputs": [],
      "name": "NON_WHITELIST_ERROR",
      "outputs": [
        {
          "internalType": "string",
          "name": "",
          "type": "string"
        }
      ],
      "stateMutability": "view",
      "type": "function"
    },
    {
      "inputs": [],
      "name": "SUCCESS_CODE",
      "outputs": [
        {
          "internalType": "uint8",
          "name": "",
          "type": "uint8"
        }
      ],
      "stateMutability": "view",
      "type": "function"
    },
    {
      "inputs": [],
      "name": "SUCCESS_MESSAGE",
      "outputs": [
        {
          "internalType": "string",
          "name": "",
          "type": "string"
        }
      ],
      "stateMutability": "view",
      "type": "function"
    },
    {
      "inputs": [
        {
          "internalType": "address",
          "name": "account",
          "type": "address"
        }
      ],
      "name": "addAdmin",
      "outputs": [],
      "stateMutability": "nonpayable",
      "type": "function"
    },
    {
      "inputs": [
        {
          "internalType": "address",
          "name": "account",
          "type": "address"
        }
      ],
      "name": "addWhitelist",
      "outputs": [],
      "stateMutability": "nonpayable",
      "type": "function"
    },
    {
      "inputs": [
        {
          "internalType": "address",
          "name": "account",
          "type": "address"
        }
      ],
      "name": "isAdmin",
      "outputs": [
        {
          "internalType": "bool",
          "name": "",
          "type": "bool"
        }
      ],
      "stateMutability": "view",
      "type": "function"
    },
    {
      "inputs": [
        {
          "internalType": "address",
          "name": "account",
          "type": "address"
        }
      ],
      "name": "isWhitelist",
      "outputs": [
        {
          "internalType": "bool",
          "name": "",
          "type": "bool"
        }
      ],
      "stateMutability": "view",
      "type": "function"
    },
    {
      "inputs": [],
      "name": "owner",
      "outputs": [
        {
          "internalType": "address",
          "name": "",
          "type": "address"
        }
      ],
      "stateMutability": "view",
      "type": "function"
    },
    {
      "inputs": [],
      "name": "pause",
      "outputs": [],
      "stateMutability": "nonpayable",
      "type": "function"
    },
    {
      "inputs": [
        {
          "internalType": "address",
          "name": "account",
          "type": "address"
        }
      ],
      "name": "removeAdmin",
      "outputs": [],
      "stateMutability": "nonpayable",
      "type": "function"
    },
    {
      "inputs": [
        {
          "internalType": "address",
          "name": "account",
          "type": "address"
        }
      ],
      "name": "removeWhitelisted",
      "outputs": [],
      "stateMutability": "nonpayable",
      "type": "function"
    },
    {
      "inputs": [],
      "name": "tokenSummary",
      "outputs": [
        {
          "internalType": "address",
          "name": "initialAccount",
          "type": "address"
        },
        {
          "internalType": "string",
          "name": "name",
          "type": "string"
        },
        {
          "internalType": "string",
          "name": "symbol",
          "type": "string"
        }
      ],
      "stateMutability": "view",
      "type": "function"
    },
    {
      "inputs": [
        {
          "internalType": "address",
          "name": "newOwner",
          "type": "address"
        }
      ],
      "name": "transferOwnership",
      "outputs": [],
      "stateMutability": "nonpayable",
      "type": "function"
    },
    {
      "inputs": [],
      "name": "unpause",
      "outputs": [],
      "stateMutability": "nonpayable",
      "type": "function"
    },
    {
      "inputs": [
        {
          "internalType": "address",
          "name": "to",
          "type": "address"
        }
      ],
      "name": "validateTransferRestricted",
      "outputs": [
        {
          "internalType": "uint8",
          "name": "restrictionCode",
          "type": "uint8"
        }
      ],
      "stateMutability": "view",
      "type": "function"
    },
    {
      "inputs": [
        {
          "internalType": "uint8",
          "name": "restrictionCode",
          "type": "uint8"
        }
      ],
      "name": "messageHandler",
      "outputs": [
        {
          "internalType": "string",
          "name": "message",
          "type": "string"
        }
      ],
      "stateMutability": "pure",
      "type": "function"
    },
    {
      "inputs": [],
      "name": "totalSupply",
      "outputs": [
        {
          "internalType": "uint256",
          "name": "",
          "type": "uint256"
        }
      ],
      "stateMutability": "view",
      "type": "function"
    },
    {
      "inputs": [
        {
          "internalType": "address",
          "name": "account",
          "type": "address"
        }
      ],
      "name": "balanceOf",
      "outputs": [
        {
          "internalType": "uint256",
          "name": "",
          "type": "uint256"
        }
      ],
      "stateMutability": "view",
      "type": "function"
    },
    {
      "inputs": [
        {
          "internalType": "address",
          "name": "spender",
          "type": "address"
        },
        {
          "internalType": "uint256",
          "name": "value",
          "type": "uint256"
        }
      ],
      "name": "approve",
      "outputs": [
        {
          "internalType": "bool",
          "name": "",
          "type": "bool"
        }
      ],
      "stateMutability": "nonpayable",
      "type": "function"
    },
    {
      "inputs": [
        {
          "internalType": "address",
          "name": "owner",
          "type": "address"
        },
        {
          "internalType": "address",
          "name": "spender",
          "type": "address"
        }
      ],
      "name": "allowance",
      "outputs": [
        {
          "internalType": "uint256",
          "name": "",
          "type": "uint256"
        }
      ],
      "stateMutability": "view",
      "type": "function"
    },
    {
      "inputs": [
        {
          "internalType": "address",
          "name": "to",
          "type": "address"
        },
        {
          "internalType": "uint256",
          "name": "value",
          "type": "uint256"
        }
      ],
      "name": "transfer",
      "outputs": [
        {
          "internalType": "bool",
          "name": "success",
          "type": "bool"
        }
      ],
      "stateMutability": "nonpayable",
      "type": "function"
    },
    {
      "inputs": [
        {
          "internalType": "address",
          "name": "from",
          "type": "address"
        },
        {
          "internalType": "address",
          "name": "spender",
          "type": "address"
        },
        {
          "internalType": "uint256",
          "name": "value",
          "type": "uint256"
        }
      ],
      "name": "transferFrom",
      "outputs": [
        {
          "internalType": "bool",
          "name": "",
          "type": "bool"
        }
      ],
      "stateMutability": "nonpayable",
      "type": "function"
    },
    {
      "inputs": [
        {
          "internalType": "uint256",
          "name": "value",
          "type": "uint256"
        }
      ],
      "name": "burn",
      "outputs": [
        {
          "internalType": "bool",
          "name": "success",
          "type": "bool"
        }
      ],
      "stateMutability": "nonpayable",
      "type": "function"
    },
    {
      "inputs": [
        {
          "internalType": "address",
          "name": "account",
          "type": "address"
        },
        {
          "internalType": "uint256",
          "name": "value",
          "type": "uint256"
        }
      ],
      "name": "mint",
      "outputs": [
        {
          "internalType": "bool",
          "name": "",
          "type": "bool"
        }
      ],
      "stateMutability": "nonpayable",
      "type": "function"
    }
  ],
  "bytecode": "0x6080604052604051620028ec380380620028ec833981810160405281019062000029919062000590565b336000806101000a81548173ffffffffffffffffffffffffffffffffffffffff021916908373ffffffffffffffffffffffffffffffffffffffff16021790555060018060008060009054906101000a900473ffffffffffffffffffffffffffffffffffffffff1673ffffffffffffffffffffffffffffffffffffffff1673ffffffffffffffffffffffffffffffffffffffff16815260200190815260200160002060006101000a81548160ff0219169083151502179055506000600360006101000a81548160ff0219169083151502179055506200010d826200020f60201b60201c565b80600460008473ffffffffffffffffffffffffffffffffffffffff1673ffffffffffffffffffffffffffffffffffffffff168152602001908152602001600020819055508060098190555060405180606001604052808373ffffffffffffffffffffffffffffffffffffffff16815260200185815260200184815250600660008201518160000160006101000a81548173ffffffffffffffffffffffffffffffffffffffff021916908373ffffffffffffffffffffffffffffffffffffffff1602179055506020820151816001019081620001e9919062000881565b50604082015181600201908162000201919062000881565b509050505050505062000968565b600160003373ffffffffffffffffffffffffffffffffffffffff1673ffffffffffffffffffffffffffffffffffffffff16815260200190815260200160002060009054906101000a900460ff166200026657600080fd5b600073ffffffffffffffffffffffffffffffffffffffff168173ffffffffffffffffffffffffffffffffffffffff1614158015620002ee5750600260008273ffffffffffffffffffffffffffffffffffffffff1673ffffffffffffffffffffffffffffffffffffffff16815260200190815260200160002060009054906101000a900460ff16155b620002f857600080fd5b6001600260008373ffffffffffffffffffffffffffffffffffffffff1673ffffffffffffffffffffffffffffffffffffffff16815260200190815260200160002060006101000a81548160ff02191690831515021790555050565b6000604051905090565b600080fd5b600080fd5b600080fd5b600080fd5b6000601f19601f8301169050919050565b7f4e487b7100000000000000000000000000000000000000000000000000000000600052604160045260246000fd5b620003bc8262000371565b810181811067ffffffffffffffff82111715620003de57620003dd62000382565b5b80604052505050565b6000620003f362000353565b9050620004018282620003b1565b919050565b600067ffffffffffffffff82111562000424576200042362000382565b5b6200042f8262000371565b9050602081019050919050565b60005b838110156200045c5780820151818401526020810190506200043f565b838111156200046c576000848401525b50505050565b600062000489620004838462000406565b620003e7565b905082815260208101848484011115620004a857620004a76200036c565b5b620004b58482856200043c565b509392505050565b600082601f830112620004d557620004d462000367565b5b8151620004e784826020860162000472565b91505092915050565b600073ffffffffffffffffffffffffffffffffffffffff82169050919050565b60006200051d82620004f0565b9050919050565b6200052f8162000510565b81146200053b57600080fd5b50565b6000815190506200054f8162000524565b92915050565b6000819050919050565b6200056a8162000555565b81146200057657600080fd5b50565b6000815190506200058a816200055f565b92915050565b60008060008060808587031215620005ad57620005ac6200035d565b5b600085015167ffffffffffffffff811115620005ce57620005cd62000362565b5b620005dc87828801620004bd565b945050602085015167ffffffffffffffff8111156200060057620005ff62000362565b5b6200060e87828801620004bd565b935050604062000621878288016200053e565b9250506060620006348782880162000579565b91505092959194509250565b600081519050919050565b7f4e487b7100000000000000000000000000000000000000000000000000000000600052602260045260246000fd5b600060028204905060018216806200069357607f821691505b602082108103620006a957620006a86200064b565b5b50919050565b60008190508160005260206000209050919050565b60006020601f8301049050919050565b600082821b905092915050565b600060088302620007137fffffffffffffffffffffffffffffffffffffffffffffffffffffffffffffffff82620006d4565b6200071f8683620006d4565b95508019841693508086168417925050509392505050565b6000819050919050565b6000620007626200075c620007568462000555565b62000737565b62000555565b9050919050565b6000819050919050565b6200077e8362000741565b620007966200078d8262000769565b848454620006e1565b825550505050565b600090565b620007ad6200079e565b620007ba81848462000773565b505050565b5b81811015620007e257620007d6600082620007a3565b600181019050620007c0565b5050565b601f8211156200083157620007fb81620006af565b6200080684620006c4565b8101602085101562000816578190505b6200082e6200082585620006c4565b830182620007bf565b50505b505050565b600082821c905092915050565b6000620008566000198460080262000836565b1980831691505092915050565b600062000871838362000843565b9150826002028217905092915050565b6200088c8262000640565b67ffffffffffffffff811115620008a857620008a762000382565b5b620008b482546200067a565b620008c1828285620007e6565b600060209050601f831160018114620008f95760008415620008e4578287015190505b620008f0858262000863565b86555062000960565b601f1984166200090986620006af565b60005b8281101562000933578489015182556001820191506020850194506020810190506200090c565b868310156200095357848901516200094f601f89168262000843565b8355505b6001600288020188555050505b505050505050565b611f7480620009786000396000f3fe608060405234801561001057600080fd5b50600436106101735760003560e01c806342966c68116100de5780639033cb2811610097578063dd62ed3e11610071578063dd62ed3e14610476578063e7984d17146104a6578063f2fde38b146104c4578063f80f5dd5146104e057610173565b80639033cb28146103e6578063a9059cbb14610416578063c683630d1461044657610173565b806342966c681461031257806343f432d514610342578063704802751461037257806370a082311461038e5780638456cb59146103be5780638da5cb5b146103c857610173565b806323b872dd1161013057806323b872dd1461023e5780632431691c1461026e57806324d7806c1461028c578063291d9549146102bc5780633f4ba83a146102d857806340c10f19146102e257610173565b8063095ea7b3146101785780630e969a05146101a85780631785f53c146101c657806318160ddd146101e25780631fc377841461020057806322baf96d14610220575b600080fd5b610192600480360381019061018d9190611a8c565b6104fc565b60405161019f9190611ae7565b60405180910390f35b6101b0610626565b6040516101bd9190611b1e565b60405180910390f35b6101e060048036038101906101db9190611b39565b61062b565b005b6101ea61076d565b6040516101f79190611b75565b60405180910390f35b610208610777565b60405161021793929190611c38565b60405180910390f35b6102286108bf565b6040516102359190611c7d565b60405180910390f35b61025860048036038101906102539190611c9f565b6108db565b6040516102659190611ae7565b60405180910390f35b610276610c1c565b6040516102839190611b1e565b60405180910390f35b6102a660048036038101906102a19190611b39565b610c21565b6040516102b39190611ae7565b60405180910390f35b6102d660048036038101906102d19190611b39565b610cd0565b005b6102e0610e10565b005b6102fc60048036038101906102f79190611a8c565b610ed3565b6040516103099190611ae7565b60405180910390f35b61032c60048036038101906103279190611cf2565b61105d565b6040516103399190611ae7565b60405180910390f35b61035c60048036038101906103579190611d4b565b6111cb565b6040516103699190611c7d565b60405180910390f35b61038c60048036038101906103879190611b39565b611248565b005b6103a860048036038101906103a39190611b39565b61138a565b6040516103b59190611b75565b60405180910390f35b6103c66113d3565b005b6103d0611497565b6040516103dd9190611d78565b60405180910390f35b61040060048036038101906103fb9190611b39565b6114bb565b60405161040d9190611b1e565b60405180910390f35b610430600480360381019061042b9190611a8c565b6114dd565b60405161043d9190611ae7565b60405180910390f35b610460600480360381019061045b9190611b39565b611701565b60405161046d9190611ae7565b60405180910390f35b610490600480360381019061048b9190611d93565b611757565b60405161049d9190611b75565b60405180910390f35b6104ae6117de565b6040516104bb9190611c7d565b60405180910390f35b6104de60048036038101906104d99190611b39565b611817565b005b6104fa60048036038101906104f59190611b39565b6118b2565b005b60008073ffffffffffffffffffffffffffffffffffffffff168373ffffffffffffffffffffffffffffffffffffffff160361053657600080fd5b81600560003373ffffffffffffffffffffffffffffffffffffffff1673ffffffffffffffffffffffffffffffffffffffff16815260200190815260200160002060008573ffffffffffffffffffffffffffffffffffffffff1673ffffffffffffffffffffffffffffffffffffffff168152602001908152602001600020819055508273ffffffffffffffffffffffffffffffffffffffff163373ffffffffffffffffffffffffffffffffffffffff167f8c5be1e5ebec7d5bd14f71427d1e84f3dd0314c0f7b2291e5b200ac8c7c3b925846040516106149190611b75565b60405180910390a36001905092915050565b600081565b60008054906101000a900473ffffffffffffffffffffffffffffffffffffffff1673ffffffffffffffffffffffffffffffffffffffff163373ffffffffffffffffffffffffffffffffffffffff161461068357600080fd5b600073ffffffffffffffffffffffffffffffffffffffff168173ffffffffffffffffffffffffffffffffffffffff16141580156107095750600160008273ffffffffffffffffffffffffffffffffffffffff1673ffffffffffffffffffffffffffffffffffffffff16815260200190815260200160002060009054906101000a900460ff165b61071257600080fd5b6000600160008373ffffffffffffffffffffffffffffffffffffffff1673ffffffffffffffffffffffffffffffffffffffff16815260200190815260200160002060006101000a81548160ff02191690831515021790555050565b6000600954905090565b60068060000160009054906101000a900473ffffffffffffffffffffffffffffffffffffffff16908060010180546107ae90611e02565b80601f01602080910402602001604051908101604052809291908181526020018280546107da90611e02565b80156108275780601f106107fc57610100808354040283529160200191610827565b820191906000526020600020905b81548152906001019060200180831161080a57829003601f168201915b50505050509080600201805461083c90611e02565b80601f016020809104026020016040519081016040528092919081815260200182805461086890611e02565b80156108b55780601f1061088a576101008083540402835291602001916108b5565b820191906000526020600020905b81548152906001019060200180831161089857829003601f168201915b5050505050905083565b604051806060016040528060298152602001611f166029913981565b600083838360006108eb836114bb565b9050600060ff168160ff1614610900826111cb565b90610941576040517f08c379a00000000000000000000000000000000000000000000000000000000081526004016109389190611c7d565b60405180910390fd5b50600360009054906101000a900460ff161561095c57600080fd5b600073ffffffffffffffffffffffffffffffffffffffff168773ffffffffffffffffffffffffffffffffffffffff16141580156109d85750600460008973ffffffffffffffffffffffffffffffffffffffff1673ffffffffffffffffffffffffffffffffffffffff168152602001908152602001600020548611155b8015610a605750600560008973ffffffffffffffffffffffffffffffffffffffff1673ffffffffffffffffffffffffffffffffffffffff16815260200190815260200160002060003373ffffffffffffffffffffffffffffffffffffffff1673ffffffffffffffffffffffffffffffffffffffff168152602001908152602001600020548611155b610a6957600080fd5b85600460008a73ffffffffffffffffffffffffffffffffffffffff1673ffffffffffffffffffffffffffffffffffffffff1681526020019081526020016000206000828254610ab89190611e62565b9250508190555085600460008973ffffffffffffffffffffffffffffffffffffffff1673ffffffffffffffffffffffffffffffffffffffff1681526020019081526020016000206000828254610b0e9190611e96565b9250508190555085600560008a73ffffffffffffffffffffffffffffffffffffffff1673ffffffffffffffffffffffffffffffffffffffff16815260200190815260200160002060003373ffffffffffffffffffffffffffffffffffffffff1673ffffffffffffffffffffffffffffffffffffffff1681526020019081526020016000206000828254610ba19190611e62565b925050819055508673ffffffffffffffffffffffffffffffffffffffff168873ffffffffffffffffffffffffffffffffffffffff167fddf252ad1be2c89b69c2b068fc378daa952ba7f163c4a11628f55a4df523b3ef88604051610c059190611b75565b60405180910390a360019450505050509392505050565b600181565b60008060009054906101000a900473ffffffffffffffffffffffffffffffffffffffff1673ffffffffffffffffffffffffffffffffffffffff163373ffffffffffffffffffffffffffffffffffffffff1614610c7c57600080fd5b600160008373ffffffffffffffffffffffffffffffffffffffff1673ffffffffffffffffffffffffffffffffffffffff16815260200190815260200160002060009054906101000a900460ff169050919050565b600160003373ffffffffffffffffffffffffffffffffffffffff1673ffffffffffffffffffffffffffffffffffffffff16815260200190815260200160002060009054906101000a900460ff16610d2657600080fd5b600073ffffffffffffffffffffffffffffffffffffffff168173ffffffffffffffffffffffffffffffffffffffff1614158015610dac5750600260008273ffffffffffffffffffffffffffffffffffffffff1673ffffffffffffffffffffffffffffffffffffffff16815260200190815260200160002060009054906101000a900460ff165b610db557600080fd5b6000600260008373ffffffffffffffffffffffffffffffffffffffff1673ffffffffffffffffffffffffffffffffffffffff16815260200190815260200160002060006101000a81548160ff02191690831515021790555050565b600160003373ffffffffffffffffffffffffffffffffffffffff1673ffffffffffffffffffffffffffffffffffffffff16815260200190815260200160002060009054906101000a900460ff16610e6657600080fd5b600360009054906101000a900460ff16610e7f57600080fd5b6000600360006101000a81548160ff0219169083151502179055507f5b458f30661b64d53169f3d852fe57bbaf55cb8f5615af19114f2c9b7bb52c0e33604051610ec99190611d78565b60405180910390a1565b6000600360009054906101000a900460ff1615610eef57600080fd5b600160003373ffffffffffffffffffffffffffffffffffffffff1673ffffffffffffffffffffffffffffffffffffffff16815260200190815260200160002060009054906101000a900460ff16610f4557600080fd5b600073ffffffffffffffffffffffffffffffffffffffff168373ffffffffffffffffffffffffffffffffffffffff1603610f7e57600080fd5b8160096000828254610f909190611e96565b9250508190555081600460008573ffffffffffffffffffffffffffffffffffffffff1673ffffffffffffffffffffffffffffffffffffffff1681526020019081526020016000206000828254610fe69190611e96565b925050819055508273ffffffffffffffffffffffffffffffffffffffff16600073ffffffffffffffffffffffffffffffffffffffff167fddf252ad1be2c89b69c2b068fc378daa952ba7f163c4a11628f55a4df523b3ef8460405161104b9190611b75565b60405180910390a36001905092915050565b6000600360009054906101000a900460ff161561107957600080fd5b600160003373ffffffffffffffffffffffffffffffffffffffff1673ffffffffffffffffffffffffffffffffffffffff16815260200190815260200160002060009054906101000a900460ff166110cf57600080fd5b81600460003373ffffffffffffffffffffffffffffffffffffffff1673ffffffffffffffffffffffffffffffffffffffff168152602001908152602001600020541161111a57600080fd5b81600460003373ffffffffffffffffffffffffffffffffffffffff1673ffffffffffffffffffffffffffffffffffffffff16815260200190815260200160002060008282546111699190611e62565b9250508190555081600960008282546111829190611e62565b925050819055507fcc16f5dbb4873280815c1ee09dbd06736cffcc184412cf7a71a0fdb75d397ca533836040516111ba929190611eec565b60405180910390a160019050919050565b6060600060ff168260ff1603611218576040518060400160405280600781526020017f53554343455353000000000000000000000000000000000000000000000000008152509050611243565b600160ff168260ff160361124257604051806060016040528060298152602001611f166029913990505b5b919050565b60008054906101000a900473ffffffffffffffffffffffffffffffffffffffff1673ffffffffffffffffffffffffffffffffffffffff163373ffffffffffffffffffffffffffffffffffffffff16146112a057600080fd5b600073ffffffffffffffffffffffffffffffffffffffff168173ffffffffffffffffffffffffffffffffffffffff16141580156113275750600160008273ffffffffffffffffffffffffffffffffffffffff1673ffffffffffffffffffffffffffffffffffffffff16815260200190815260200160002060009054906101000a900460ff16155b61133057600080fd5b60018060008373ffffffffffffffffffffffffffffffffffffffff1673ffffffffffffffffffffffffffffffffffffffff16815260200190815260200160002060006101000a81548160ff02191690831515021790555050565b6000600460008373ffffffffffffffffffffffffffffffffffffffff1673ffffffffffffffffffffffffffffffffffffffff168152602001908152602001600020549050919050565b600160003373ffffffffffffffffffffffffffffffffffffffff1673ffffffffffffffffffffffffffffffffffffffff16815260200190815260200160002060009054906101000a900460ff1661142957600080fd5b600360009054906101000a900460ff161561144357600080fd5b6001600360006101000a81548160ff0219169083151502179055507f507601cb28731d1f402d3760797e1a1b121a6b956be4fef723175be45cce56633360405161148d9190611d78565b60405180910390a1565b60008054906101000a900473ffffffffffffffffffffffffffffffffffffffff1681565b60006114c682611701565b6114d357600190506114d8565b600090505b919050565b600033838360006114ed836114bb565b9050600060ff168160ff1614611502826111cb565b90611543576040517f08c379a000000000000000000000000000000000000000000000000000000000815260040161153a9190611c7d565b60405180910390fd5b50600360009054906101000a900460ff161561155e57600080fd5b600073ffffffffffffffffffffffffffffffffffffffff168773ffffffffffffffffffffffffffffffffffffffff16141580156115d9575085600460003373ffffffffffffffffffffffffffffffffffffffff1673ffffffffffffffffffffffffffffffffffffffff16815260200190815260200160002054115b6115e257600080fd5b85600460003373ffffffffffffffffffffffffffffffffffffffff1673ffffffffffffffffffffffffffffffffffffffff16815260200190815260200160002060008282546116319190611e62565b9250508190555085600460008973ffffffffffffffffffffffffffffffffffffffff1673ffffffffffffffffffffffffffffffffffffffff16815260200190815260200160002060008282546116879190611e96565b925050819055508673ffffffffffffffffffffffffffffffffffffffff163373ffffffffffffffffffffffffffffffffffffffff167fddf252ad1be2c89b69c2b068fc378daa952ba7f163c4a11628f55a4df523b3ef886040516116eb9190611b75565b60405180910390a3600194505050505092915050565b6000600260008373ffffffffffffffffffffffffffffffffffffffff1673ffffffffffffffffffffffffffffffffffffffff16815260200190815260200160002060009054906101000a900460ff169050919050565b6000600560008473ffffffffffffffffffffffffffffffffffffffff1673ffffffffffffffffffffffffffffffffffffffff16815260200190815260200160002060008373ffffffffffffffffffffffffffffffffffffffff1673ffffffffffffffffffffffffffffffffffffffff16815260200190815260200160002054905092915050565b6040518060400160405280600781526020017f535543434553530000000000000000000000000000000000000000000000000081525081565b60008054906101000a900473ffffffffffffffffffffffffffffffffffffffff1673ffffffffffffffffffffffffffffffffffffffff163373ffffffffffffffffffffffffffffffffffffffff161461186f57600080fd5b806000806101000a81548173ffffffffffffffffffffffffffffffffffffffff021916908373ffffffffffffffffffffffffffffffffffffffff16021790555050565b600160003373ffffffffffffffffffffffffffffffffffffffff1673ffffffffffffffffffffffffffffffffffffffff16815260200190815260200160002060009054906101000a900460ff1661190857600080fd5b600073ffffffffffffffffffffffffffffffffffffffff168173ffffffffffffffffffffffffffffffffffffffff161415801561198f5750600260008273ffffffffffffffffffffffffffffffffffffffff1673ffffffffffffffffffffffffffffffffffffffff16815260200190815260200160002060009054906101000a900460ff16155b61199857600080fd5b6001600260008373ffffffffffffffffffffffffffffffffffffffff1673ffffffffffffffffffffffffffffffffffffffff16815260200190815260200160002060006101000a81548160ff02191690831515021790555050565b600080fd5b600073ffffffffffffffffffffffffffffffffffffffff82169050919050565b6000611a23826119f8565b9050919050565b611a3381611a18565b8114611a3e57600080fd5b50565b600081359050611a5081611a2a565b92915050565b6000819050919050565b611a6981611a56565b8114611a7457600080fd5b50565b600081359050611a8681611a60565b92915050565b60008060408385031215611aa357611aa26119f3565b5b6000611ab185828601611a41565b9250506020611ac285828601611a77565b9150509250929050565b60008115159050919050565b611ae181611acc565b82525050565b6000602082019050611afc6000830184611ad8565b92915050565b600060ff82169050919050565b611b1881611b02565b82525050565b6000602082019050611b336000830184611b0f565b92915050565b600060208284031215611b4f57611b4e6119f3565b5b6000611b5d84828501611a41565b91505092915050565b611b6f81611a56565b82525050565b6000602082019050611b8a6000830184611b66565b92915050565b611b9981611a18565b82525050565b600081519050919050565b600082825260208201905092915050565b60005b83811015611bd9578082015181840152602081019050611bbe565b83811115611be8576000848401525b50505050565b6000601f19601f8301169050919050565b6000611c0a82611b9f565b611c148185611baa565b9350611c24818560208601611bbb565b611c2d81611bee565b840191505092915050565b6000606082019050611c4d6000830186611b90565b8181036020830152611c5f8185611bff565b90508181036040830152611c738184611bff565b9050949350505050565b60006020820190508181036000830152611c978184611bff565b905092915050565b600080600060608486031215611cb857611cb76119f3565b5b6000611cc686828701611a41565b9350506020611cd786828701611a41565b9250506040611ce886828701611a77565b9150509250925092565b600060208284031215611d0857611d076119f3565b5b6000611d1684828501611a77565b91505092915050565b611d2881611b02565b8114611d3357600080fd5b50565b600081359050611d4581611d1f565b92915050565b600060208284031215611d6157611d606119f3565b5b6000611d6f84828501611d36565b91505092915050565b6000602082019050611d8d6000830184611b90565b92915050565b60008060408385031215611daa57611da96119f3565b5b6000611db885828601611a41565b9250506020611dc985828601611a41565b9150509250929050565b7f4e487b7100000000000000000000000000000000000000000000000000000000600052602260045260246000fd5b60006002820490506001821680611e1a57607f821691505b602082108103611e2d57611e2c611dd3565b5b50919050565b7f4e487b7100000000000000000000000000000000000000000000000000000000600052601160045260246000fd5b6000611e6d82611a56565b9150611e7883611a56565b925082821015611e8b57611e8a611e33565b5b828203905092915050565b6000611ea182611a56565b9150611eac83611a56565b9250827fffffffffffffffffffffffffffffffffffffffffffffffffffffffffffffffff03821115611ee157611ee0611e33565b5b828201905092915050565b6000604082019050611f016000830185611b90565b611f0e6020830184611b66565b939250505056fe494c4c4547414c5f5452414e534645525f544f5f4e4f4e5f57484954454c4953545f41444452455353a2646970667358221220c0066c93b820204d2611cb35a63155bdcfc5117cddef3b512869b836981c824264736f6c634300080f0033",
  "immutableReferences": {},
  "source": "// SPDX-License-Identifier: GPL-3.0\r\npragma solidity 0.8.15;\r\n\r\ninterface ERC20 {\r\n    function transfer(address to, uint256 value) external returns (bool);\r\n\r\n    function approve(address spender, uint256 value) external returns (bool);\r\n\r\n    function transferFrom(address from, address to, uint256 value) external returns (bool);\r\n\r\n    function totalSupply() external view returns (uint256);\r\n\r\n    function balanceOf(address who) external view returns (uint256);\r\n\r\n    function allowance(address owner, address spender) external view returns (uint256);\r\n\r\n    event Transfer(address indexed from, address indexed to, uint256 value);\r\n\r\n    event Approval(address indexed owner, address indexed spender, uint256 value);\r\n\r\n    event Burn(address from, uint256 value);\r\n}\r\n\r\ncontract Owned {\r\n    address public owner;\r\n\r\n    mapping(address => bool) admins;\r\n\r\n    constructor() {\r\n        owner = msg.sender;\r\n        admins[owner] = true;\r\n    }\r\n\r\n    modifier onlyOwner {\r\n        require(msg.sender == owner);\r\n        _;\r\n    }\r\n\r\n    modifier onlyAdmin {\r\n        require(admins[msg.sender]);\r\n        _;\r\n    }\r\n\r\n    function transferOwnership(address newOwner) onlyOwner public {\r\n        owner = newOwner;\r\n    }\r\n\r\n    function isAdmin(address account) onlyOwner public view returns (bool) {\r\n        return admins[account];\r\n    }\r\n\r\n    function addAdmin(address account) onlyOwner public {\r\n        require(account != address(0) && !admins[account]);\r\n        admins[account] = true;\r\n    }\r\n\r\n    function removeAdmin(address account) onlyOwner public {\r\n        require(account != address(0) && admins[account]);\r\n        admins[account] = false;\r\n    }\r\n}\r\n\r\ncontract Whitelist is Owned {\r\n    mapping(address => bool) whitelist;\r\n\r\n    function addWhitelist(address account) onlyAdmin public {\r\n        require(account != address(0) && !whitelist[account]);\r\n        whitelist[account] = true;\r\n    }\r\n\r\n    function isWhitelist(address account) public view returns (bool) {\r\n        return whitelist[account];\r\n    }\r\n\r\n    function removeWhitelisted(address account) onlyAdmin public {\r\n        require(account != address(0) && whitelist[account]);\r\n        whitelist[account] = false;\r\n    }\r\n}\r\n\r\ncontract Pausable is Owned {\r\n    bool private paused;\r\n\r\n    event PausedEvt(address account);\r\n    event UnpausedEvt(address account);\r\n\r\n    constructor() {\r\n        paused = false;\r\n    }\r\n\r\n    modifier whenNotPaused() {\r\n        require(!paused);\r\n        _;\r\n    }\r\n\r\n    modifier whenPaused() {\r\n        require(paused);\r\n        _;\r\n    }\r\n\r\n    function pause() public onlyAdmin whenNotPaused {\r\n        paused = true;\r\n        emit PausedEvt(msg.sender);\r\n    }\r\n\r\n    function unpause() public onlyAdmin whenPaused {\r\n        paused = false;\r\n        emit UnpausedEvt(msg.sender);\r\n    }\r\n}\r\n\r\ncontract ERC20Token is ERC20, Whitelist, Pausable {\r\n    mapping(address => uint256) internal balances;\r\n    mapping(address => mapping(address => uint256)) internal allowed;\r\n\r\n    TokenSummary public tokenSummary;\r\n    uint256 internal _totalSupply;\r\n\r\n    uint8 public constant SUCCESS_CODE = 0;\r\n    string public constant SUCCESS_MESSAGE = \"SUCCESS\";\r\n    uint8 public constant NON_WHITELIST_CODE = 1;\r\n    string public constant NON_WHITELIST_ERROR = \"ILLEGAL_TRANSFER_TO_NON_WHITELIST_ADDRESS\";\r\n\r\n    struct TokenSummary {\r\n        address initialAccount;\r\n        string name;\r\n        string symbol;\r\n    }\r\n\r\n    constructor(string memory _name, string memory _symbol, address initialAccount, uint initialBalance) payable {\r\n        addWhitelist(initialAccount);\r\n        balances[initialAccount] = initialBalance;\r\n        _totalSupply = initialBalance;\r\n        tokenSummary = TokenSummary(initialAccount, _name, _symbol);\r\n    }\r\n\r\n    modifier verify(address from, address to, uint256 value) {\r\n        uint8 restrictionCode = validateTransferRestricted(to);\r\n        require(restrictionCode == SUCCESS_CODE, messageHandler(restrictionCode));\r\n        _;\r\n    }\r\n\r\n    function validateTransferRestricted(address to) public view returns (uint8 restrictionCode) {\r\n        if (!isWhitelist(to)) {\r\n            restrictionCode = NON_WHITELIST_CODE;\r\n        }\r\n        else {\r\n            restrictionCode = SUCCESS_CODE;\r\n        }\r\n    }\r\n\r\n    function messageHandler(uint8 restrictionCode) public pure returns (string memory message) {\r\n        if (restrictionCode == SUCCESS_CODE) {\r\n            message = SUCCESS_MESSAGE;\r\n        }\r\n        else if (restrictionCode == NON_WHITELIST_CODE) {\r\n            message = NON_WHITELIST_ERROR;\r\n        }\r\n    }\r\n\r\n    function totalSupply() public view returns (uint256) {\r\n        return _totalSupply;\r\n    }\r\n\r\n    function balanceOf(address account) public view returns (uint256) {\r\n        return balances[account];\r\n    }\r\n\r\n    function approve(address spender, uint256 value) public returns (bool) {\r\n        require(spender != address(0));\r\n        allowed[msg.sender][spender] = value;\r\n        emit Approval(msg.sender, spender, value);\r\n        return true;\r\n    }\r\n\r\n    function allowance(address owner, address spender) public view returns (uint256) {\r\n        return allowed[owner][spender];\r\n    }\r\n\r\n    function transfer(address to, uint256 value) public verify(msg.sender, to, value) whenNotPaused returns (bool success) {\r\n        // it checks whether the account (to) is valid\r\n        require(to != address(0) && balances[msg.sender] > value);\r\n        balances[msg.sender] -= value;\r\n        balances[to] += value;\r\n        emit Transfer(msg.sender, to, value);\r\n        return true;\r\n    }\r\n\r\n    function transferFrom(address from, address spender, uint256 value) public verify(from, spender, value) whenNotPaused returns (bool) {\r\n        require(spender != address(0) && value <= balances[from] && value <= allowed[from][msg.sender]);\r\n        balances[from] -= value;\r\n        balances[spender] += value;\r\n        allowed[from][msg.sender] -= value;\r\n        emit Transfer(from, spender, value);\r\n        return true;\r\n    }\r\n\r\n    function burn(uint256 value) public whenNotPaused onlyAdmin returns (bool success) {\r\n        require(balances[msg.sender] > value);\r\n        balances[msg.sender] -= value;\r\n        _totalSupply -= value;\r\n        emit Burn(msg.sender, value);\r\n        return true;\r\n    }\r\n\r\n    function mint(address account, uint256 value) public whenNotPaused onlyAdmin returns (bool) {\r\n        require(account != address(0));\r\n        _totalSupply += value;\r\n        balances[account] += value;\r\n        emit Transfer(address(0), account, value);\r\n        return true;\r\n    }\r\n}",
  "sourcePath": "D:\\Projects\\BookLearnEthereum\\Chapter05\\ERC20Token\\contracts\\ERC20Token.sol",
  "compiler": {
    "name": "solc",
    "version": "0.8.15+commit.e14f2714.Emscripten.clang"
  },
  "schemaVersion": "3.4.8",
  "updatedAt": "2022-07-19T02:30:06.402Z",
  "devdoc": {
    "kind": "dev",
    "methods": {},
    "version": 1
  },
  "userdoc": {
    "kind": "user",
    "methods": {},
    "version": 1
  }
}