{
  "contractName": "Owned",
  "abi": [
    {
      "inputs": [],
      "stateMutability": "nonpayable",
      "type": "constructor"
    },
    {
      "inputs": [],
      "name": "owner",
      "outputs": [
        {
          "internalType": "address",
          "name": "",
          "type": "address"
        }
      ],
      "stateMutability": "view",
      "type": "function"
    },
    {
      "inputs": [
        {
          "internalType": "address",
          "name": "newOwner",
          "type": "address"
        }
      ],
      "name": "transferOwnership",
      "outputs": [],
      "stateMutability": "nonpayable",
      "type": "function"
    },
    {
      "inputs": [
        {
          "internalType": "address",
          "name": "account",
          "type": "address"
        }
      ],
      "name": "isAdmin",
      "outputs": [
        {
          "internalType": "bool",
          "name": "",
          "type": "bool"
        }
      ],
      "stateMutability": "view",
      "type": "function"
    },
    {
      "inputs": [
        {
          "internalType": "address",
          "name": "account",
          "type": "address"
        }
      ],
      "name": "addAdmin",
      "outputs": [],
      "stateMutability": "nonpayable",
      "type": "function"
    },
    {
      "inputs": [
        {
          "internalType": "address",
          "name": "account",
          "type": "address"
        }
      ],
      "name": "removeAdmin",
      "outputs": [],
      "stateMutability": "nonpayable",
      "type": "function"
    }
  ],
  "bytecode": "0x608060405234801561001057600080fd5b50336000806101000a81548173ffffffffffffffffffffffffffffffffffffffff021916908373ffffffffffffffffffffffffffffffffffffffff16021790555060018060008060009054906101000a900473ffffffffffffffffffffffffffffffffffffffff1673ffffffffffffffffffffffffffffffffffffffff1673ffffffffffffffffffffffffffffffffffffffff16815260200190815260200160002060006101000a81548160ff021916908315150217905550610616806100d86000396000f3fe608060405234801561001057600080fd5b50600436106100575760003560e01c80631785f53c1461005c57806324d7806c1461007857806370480275146100a85780638da5cb5b146100c4578063f2fde38b146100e2575b600080fd5b61007660048036038101906100719190610553565b6100fe565b005b610092600480360381019061008d9190610553565b610240565b60405161009f919061059b565b60405180910390f35b6100c260048036038101906100bd9190610553565b6102ef565b005b6100cc610431565b6040516100d991906105c5565b60405180910390f35b6100fc60048036038101906100f79190610553565b610455565b005b60008054906101000a900473ffffffffffffffffffffffffffffffffffffffff1673ffffffffffffffffffffffffffffffffffffffff163373ffffffffffffffffffffffffffffffffffffffff161461015657600080fd5b600073ffffffffffffffffffffffffffffffffffffffff168173ffffffffffffffffffffffffffffffffffffffff16141580156101dc5750600160008273ffffffffffffffffffffffffffffffffffffffff1673ffffffffffffffffffffffffffffffffffffffff16815260200190815260200160002060009054906101000a900460ff165b6101e557600080fd5b6000600160008373ffffffffffffffffffffffffffffffffffffffff1673ffffffffffffffffffffffffffffffffffffffff16815260200190815260200160002060006101000a81548160ff02191690831515021790555050565b60008060009054906101000a900473ffffffffffffffffffffffffffffffffffffffff1673ffffffffffffffffffffffffffffffffffffffff163373ffffffffffffffffffffffffffffffffffffffff161461029b57600080fd5b600160008373ffffffffffffffffffffffffffffffffffffffff1673ffffffffffffffffffffffffffffffffffffffff16815260200190815260200160002060009054906101000a900460ff169050919050565b60008054906101000a900473ffffffffffffffffffffffffffffffffffffffff1673ffffffffffffffffffffffffffffffffffffffff163373ffffffffffffffffffffffffffffffffffffffff161461034757600080fd5b600073ffffffffffffffffffffffffffffffffffffffff168173ffffffffffffffffffffffffffffffffffffffff16141580156103ce5750600160008273ffffffffffffffffffffffffffffffffffffffff1673ffffffffffffffffffffffffffffffffffffffff16815260200190815260200160002060009054906101000a900460ff16155b6103d757600080fd5b60018060008373ffffffffffffffffffffffffffffffffffffffff1673ffffffffffffffffffffffffffffffffffffffff16815260200190815260200160002060006101000a81548160ff02191690831515021790555050565b60008054906101000a900473ffffffffffffffffffffffffffffffffffffffff1681565b60008054906101000a900473ffffffffffffffffffffffffffffffffffffffff1673ffffffffffffffffffffffffffffffffffffffff163373ffffffffffffffffffffffffffffffffffffffff16146104ad57600080fd5b806000806101000a81548173ffffffffffffffffffffffffffffffffffffffff021916908373ffffffffffffffffffffffffffffffffffffffff16021790555050565b600080fd5b600073ffffffffffffffffffffffffffffffffffffffff82169050919050565b6000610520826104f5565b9050919050565b61053081610515565b811461053b57600080fd5b50565b60008135905061054d81610527565b92915050565b600060208284031215610569576105686104f0565b5b60006105778482850161053e565b91505092915050565b60008115159050919050565b61059581610580565b82525050565b60006020820190506105b0600083018461058c565b92915050565b6105bf81610515565b82525050565b60006020820190506105da60008301846105b6565b9291505056fea2646970667358221220e2cf287f1069af89d262892eb4413f0372870133d7ac44e3752a22ba000f0c3364736f6c634300080f0033",
  "immutableReferences": {},
  "source": "// SPDX-License-Identifier: GPL-3.0\r\npragma solidity 0.8.15;\r\n\r\ninterface ERC20 {\r\n    function transfer(address to, uint256 value) external returns (bool);\r\n\r\n    function approve(address spender, uint256 value) external returns (bool);\r\n\r\n    function transferFrom(address from, address to, uint256 value) external returns (bool);\r\n\r\n    function totalSupply() external view returns (uint256);\r\n\r\n    function balanceOf(address who) external view returns (uint256);\r\n\r\n    function allowance(address owner, address spender) external view returns (uint256);\r\n\r\n    event Transfer(address indexed from, address indexed to, uint256 value);\r\n\r\n    event Approval(address indexed owner, address indexed spender, uint256 value);\r\n\r\n    event Burn(address from, uint256 value);\r\n}\r\n\r\ncontract Owned {\r\n    address public owner;\r\n\r\n    mapping(address => bool) admins;\r\n\r\n    constructor() {\r\n        owner = msg.sender;\r\n        admins[owner] = true;\r\n    }\r\n\r\n    modifier onlyOwner {\r\n        require(msg.sender == owner);\r\n        _;\r\n    }\r\n\r\n    modifier onlyAdmin {\r\n        require(admins[msg.sender]);\r\n        _;\r\n    }\r\n\r\n    function transferOwnership(address newOwner) onlyOwner public {\r\n        owner = newOwner;\r\n    }\r\n\r\n    function isAdmin(address account) onlyOwner public view returns (bool) {\r\n        return admins[account];\r\n    }\r\n\r\n    function addAdmin(address account) onlyOwner public {\r\n        require(account != address(0) && !admins[account]);\r\n\r\n        admins[account] = true;\r\n    }\r\n\r\n    function removeAdmin(address account) onlyOwner public {\r\n        require(account != address(0) && admins[account]);\r\n\r\n        admins[account] = false;\r\n    }\r\n}\r\n\r\ncontract Whitelist is Owned {\r\n    mapping(address => bool) whitelist;\r\n\r\n    function addWhitelist(address account) onlyAdmin public {\r\n        require(account != address(0) && !whitelist[account]);\r\n\r\n        whitelist[account] = true;\r\n    }\r\n\r\n    function isWhitelist(address account) public view returns (bool) {\r\n        return whitelist[account];\r\n    }\r\n\r\n    function removeWhitelisted(address account) onlyAdmin public {\r\n        require(account != address(0) && whitelist[account]);\r\n\r\n        whitelist[account] = false;\r\n    }\r\n}\r\n\r\ncontract Pausable is Owned {\r\n    bool private paused;\r\n\r\n    event PausedEvt(address account);\r\n    event UnpausedEvt(address account);\r\n\r\n    constructor() {\r\n        paused = false;\r\n    }\r\n\r\n    modifier whenNotPaused() {\r\n        require(!paused);\r\n        _;\r\n    }\r\n\r\n    modifier whenPaused() {\r\n        require(paused);\r\n        _;\r\n    }\r\n\r\n    function pause() public onlyAdmin whenNotPaused {\r\n        paused = true;\r\n\r\n        emit PausedEvt(msg.sender);\r\n    }\r\n\r\n    function unpause() public onlyAdmin whenPaused {\r\n        paused = false;\r\n\r\n        emit UnpausedEvt(msg.sender);\r\n    }\r\n}\r\n\r\ncontract MyERC20Token is ERC20, Whitelist, Pausable {\r\n    mapping(address => uint256) internal balances;\r\n    mapping(address => mapping(address => uint256)) internal allowed;\r\n\r\n    TokenSummary public tokenSummary;\r\n    uint256 internal _totalSupply;\r\n\r\n    uint8 public constant SUCCESS_CODE = 0;\r\n    string public constant SUCCESS_MESSAGE = \"SUCCESS\";\r\n    uint8 public constant NON_WHITELIST_CODE = 1;\r\n    string public constant NON_WHITELIST_ERROR = \"ILLEGAL_TRANSFER_TO_NON_WHITELIST_ADDRESS\";\r\n\r\n    struct TokenSummary {\r\n        address initialAccount;\r\n        string name;\r\n        string symbol;\r\n    }\r\n\r\n    constructor(string memory _name, string memory _symbol, address initialAccount, uint initialBalance) payable {\r\n        addWhitelist(initialAccount);\r\n        balances[initialAccount] = initialBalance;\r\n        _totalSupply = initialBalance;\r\n        tokenSummary = TokenSummary(initialAccount, _name, _symbol);\r\n    }\r\n\r\n    modifier verify(address from, address to, uint256 value) {\r\n        uint8 restrictionCode = validateTransferRestricted(to);\r\n        require(restrictionCode == SUCCESS_CODE, messageHandler(restrictionCode));\r\n        _;\r\n    }\r\n\r\n    function validateTransferRestricted(address to) public view returns (uint8 restrictionCode) {\r\n        if (!isWhitelist(to)) {\r\n            restrictionCode = NON_WHITELIST_CODE;\r\n        }\r\n        else {\r\n            restrictionCode = SUCCESS_CODE;\r\n        }\r\n    }\r\n\r\n    function messageHandler(uint8 restrictionCode) public pure returns (string memory message) {\r\n        if (restrictionCode == SUCCESS_CODE) {\r\n            message = SUCCESS_MESSAGE;\r\n        }\r\n        else if (restrictionCode == NON_WHITELIST_CODE) {\r\n            message = NON_WHITELIST_ERROR;\r\n        }\r\n    }\r\n\r\n    function totalSupply() public view returns (uint256) {\r\n        return _totalSupply;\r\n    }\r\n\r\n    function balanceOf(address account) public view returns (uint256) {\r\n        return balances[account];\r\n    }\r\n\r\n    function approve(address spender, uint256 value) public returns (bool) {\r\n        require(spender != address(0));\r\n\r\n        allowed[msg.sender][spender] = value;\r\n\r\n        emit Approval(msg.sender, spender, value);\r\n\r\n        return true;\r\n    }\r\n\r\n    function allowance(address owner, address spender) public view returns (uint256) {\r\n        return allowed[owner][spender];\r\n    }\r\n\r\n    function transfer(address to, uint256 value) public verify(msg.sender, to, value) whenNotPaused returns (bool success) {\r\n        // it checks whether the account (to) is valid\r\n        require(to != address(0) && balances[msg.sender] > value);\r\n\r\n        balances[msg.sender] -= value;\r\n        balances[to] += value;\r\n\r\n        emit Transfer(msg.sender, to, value);\r\n\r\n        return true;\r\n    }\r\n\r\n    function transferFrom(address from, address spender, uint256 value) public verify(from, spender, value) whenNotPaused returns (bool) {\r\n        require(spender != address(0) && value <= balances[from] && value <= allowed[from][msg.sender]);\r\n\r\n        balances[from] -= value;\r\n        balances[spender] += value;\r\n        allowed[from][msg.sender] -= value;\r\n\r\n        emit Transfer(from, spender, value);\r\n\r\n        return true;\r\n    }\r\n\r\n    function burn(uint256 value) public whenNotPaused onlyAdmin returns (bool success) {\r\n        require(balances[msg.sender] > value);\r\n\r\n        balances[msg.sender] -= value;\r\n        _totalSupply -= value;\r\n\r\n        emit Burn(msg.sender, value);\r\n\r\n        return true;\r\n    }\r\n\r\n    function mint(address account, uint256 value) public whenNotPaused onlyAdmin returns (bool) {\r\n        require(account != address(0));\r\n\r\n        _totalSupply += value;\r\n        balances[account] += value;\r\n\r\n        emit Transfer(address(0), account, value);\r\n\r\n        return true;\r\n    }\r\n}",
  "sourcePath": "D:\\Projects\\BookLearnEthereum\\Chapter05\\MyERC20Tokens\\contracts\\MyERC20Token.sol",
  "compiler": {
    "name": "solc",
    "version": "0.8.15+commit.e14f2714.Emscripten.clang"
  },
  "schemaVersion": "3.4.8",
  "updatedAt": "2022-07-12T01:31:01.060Z",
  "devdoc": {
    "kind": "dev",
    "methods": {},
    "version": 1
  },
  "userdoc": {
    "kind": "user",
    "methods": {},
    "version": 1
  }
}